:030000000200F10A
:0C00F100787FE4F6D8FD75810902000359
:100042004449522832293B200D0A004449522830A3
:10005200293B0D0A00444331362833302C33302CEF
:1000620027E4B8B2E58FA3E6A8A1E59D97272C3532
:05007200293B0D0A000E
:1000DD00EF4E600F7D027CC7DCFEDDFCEF1F70F084
:0300ED001E80ED85
:0100F00022ED
:1000030075080075090A1200777F887E131200DDD8
:100013007BFF7A00794212009A7BFF7A00794D12B6
:10002300009A7FE87E031200DD1200947FB87E0BF6
:0F0033001200DD1200947FF47E011200DD80F4D4
:1000770053877F759850538EBF538EFE53890F4316
:0D0087008920758BFD758DFDC2ABD28E22D8
:0800FD008F993099FDC2992290
:060094007BFF7A007957A2
:10009A001200ADFF600C1200FD740129F9E43AFA6E
:0300AA0080EE22C3
:1000C600759850438E40538EFE53890F758BE0759D
:0700D6008DFEC2ABD28E22A9
:080105008F993099FDC2992287
:1000AD00BB010689828A83E0225002E722BBFE0251
:0900BD00E32289828A83E4932284
:00000001FF
