:100D570075985053890F438920AB07AA06E4F9F821
:100D67007F807E70FDFC120B94EFF404F58D858D6A
:080D77008BC2ABD2ACD28E227C
:03002300020A7955
:100A7900C0E0C0F0C083C082C0D075D000C000C043
:100A890001C002C003C004C005C006C00730980AEF
:100A9900C200C29885990A120868309902C299D091
:100AA90007D006D005D004D003D002D001D000D0A1
:0A0AB900D0D082D083D0F0D0E0321C
:0D0F4B00D292D291D294D293D295D2962216
:090F6500C292C291C294C293220F
:090F6E00D292D291D294D29322C6
:090F7700D292C291D294C29322DD
:090F8000C292D291C294D29322D4
:090F8900D292D291D294C29322BB
:090F9200D292C291D294D29322B2
:090F9B00C292D291D294C29322B9
:090FA400D292C291C294D29322B0
:100AC300E51124FC601124FE601224FE6013240649
:100AD3007012751104800D75110680087511088058
:100AE3000375110AE51224FC601024FE601024FE35
:100AF30060102406700F75120422751206227512F7
:060B0300082275120A220F
:100B0900E51124FC601B24FE601224FE600924FE0A
:100B19007012751108800D75110680087511048011
:100B290003751102E51224FC601824FE601024FEEE
:100B3900600824FE700F75120822751206227512BC
:060B4900042275120222D5
:100C540020B70C20B609120F77E4FD7F0480213001
:100C6400B71120B60E120F89E4FD7F0AFE120BD8CD
:100C7400120F6520B71130B60E120F92E4FD7F0AF1
:080C8400FE120BD8120F6522CD
:1008E300120FAD120F77D3E50D94FAE50C94004087
:1008F3001220B50630B403120F8930B50620B403B5
:10090300120F92D3E50D94FAE50C9400504520B3F1
:100913000630B203120F8930B30620B203120F92CE
:1009230020B30620B203120FA430B32730B2242021
:10093300B50630B403120F8930B50620B403120F85
:100943009220B50620B403120FA430B50630B403C9
:04095300120FA422B9
:100C8C00120FADC3742C950D7401950C5016C3E561
:100C9C000D94BCE50C9402500B120F77E4FD7F0A07
:100CAC00FE020BD830B30320B20920B303020006B6
:070CBC00020E38120F652241
:1000060020B30620B503120F7720B30630B50312CE
:0C001600000030B30630B50312000022D9
:100E380020B20620B403120F7720B20630B4031292
:0C0E48000F8930B20630B4031200002203
:060E8B0004080000110044
:0E0F3D00D281758901C28CC2A9D288D2A822A5
:100DF400E4F58CF58AD28C308107E58CD39440409D
:100E0400F6C28CAF8CEFFEAD8A7C00E42DFFEC3E85
:020E1400FE22BC
:100E1600E4F58CF58AD28C208107E58CD39440408A
:100E2600F6C28CAF8CEFFEAD8A7C00E42DFFEC3E63
:020E3600FE229A
:100B4F00E4F52DF52CF52BF52A308115E52D240133
:100B5F00F52DE4352CF52CE4352BF52BE4352AF562
:100B6F002A208109E4F52DF52CF52BF52AE47F6C6D
:100B7F007E07FDFCAB2DAA2CA92BA82AD312025657
:040B8F0040C77F01DB
:010B9300223F
:10086800E50A12026708B80708AE0808C30C089B17
:100878001108BD1508A41808A01C08D53108DA32DB
:1008880008CF4208A95208B35A08C95E08E07700A1
:100898000008E2120F6E803DC2A38039120F7780E4
:1008A80034120F80802F120F89802A120F92802510
:1008B800120B098003120AC3020CF9120F0D020C65
:1008C80054120F1D0208E3120F2D020C8C120F9BFD
:0B08D8008003120FA4020EFDB20122EB
:030003000205E40F
:1005E400C0E0C0F0C083C082C0D075D000C000C0DD
:0D05F40001C002C003C004C005C006C0075E
:10060100120E16C3EF9499EE941E500302069DD369
:10061100EF9433EE9422400302069D120DF4C3EFD2
:100621009466EE940E4075D3EF9400EE9412506CE4
:10063100E4FBE4FA120E16C3EF9439EE9401405C28
:10064100D3EF94CEEE94025053120DF4D3EF9439BC
:10065100EE94014010EF94CEEE94025008E529C3C8
:1006610013F529801AD3EF9441EE9405402EEF94AF
:10067100D7EE94065026E529C313F5294329800AAC
:10068100BA08B174082BF8A6290BBB04A5D2001235
:0C0691000868120B4FEF60FAD2A3D28170
:10069D00D007D006D005D004D003D002D001D000B1
:0B06AD00D0D0D082D083D0F0D0E0325B
:100E5400120F4BD2BB120F58120F3D7F807E25120A
:0C0E64000D571209C3D2AF120DCF80FB56
:100BD800ED146018047039EF1F8E8370011E458371
:100BE800602E7964AD0119ED60ED80F8EF1F8E83FA
:100BF80070011E458360197A277B10EB1B8A83706E
:100C0800011A458360E67C64AD041CED60ED80F854
:010C180022B9
:100DCF00E50A24F4601524F0600C24DA601324E49F
:100DDF00600C244D700ED2A3020F65020C54020852
:050DEF00E3120C8C2250
:090E910001110801120801100012
:0D0F580075CDFC75CC18D2ADD2AFD2CA2237
:03002B00020CC301
:100CC300C0E0C0D0C2CF75CDFC75CC180510E510BF
:100CD300B40A07751000D296D295E5107004D29528
:100CE300D296E51114B51002C295E510B51202C2F1
:060CF30096D0D0D0E032E3
:10035B00AED580A83FD300408D142002A1C8DA127D
:10036B0081EFD9F1DB30A4A6AF00E010080810E054
:10037B0000000F102020100F00001010F8000000DC
:10038B00000020203F202000000070080808887023
:10039B0000003028242221300000300888884830A3
:1003AB00000018202020110E000000C02010F800C3
:1003BB000000070424243F240000F808888808085C
:1003CB00000019212020110E0000E0108888180071
:1003DB0000000F112020110E0000380808C8380843
:1003EB00000000003F0000000000708808088870C3
:1003FB0000001C222121221C0000E010080810E044
:10040B00000000312222110F00000000C0C00000CC
:10041B000000000030300000001010D0FF9014E4FA
:10042B00AFA4A4A4AFE4040000040300FF00894BB5
:10043B002A1A0E1A2A4B88800010109090909090D8
:10044B001010FF101011161000002060203F10102C
:10045B001000030C102040F800404042CC0004F484
:10046B009494FF9494F40400000040201F2048440F
:10047B0042415F4142444840000000FC242424FCDC
:10048B00252624FC242424040040308F80844C55E2
:10049B00252525554C80808000003E22E2223E001F
:1004AB00FE2222222222E20200203F201F111100F5
:1004BB007F4444444444474000040404F484D4A5DA
:1004CB00A6A4D484F40404040000FE0202123A161B
:1004DB0013121A3242827E000000002424242424AA
:1004EB00FC2222222322000000020202020242828C
:1004FB007F02020202020202004044C44444444010
:10050B001010FF101010F00000103C131014B84026
:10051B00300E014080403F00000000829292929288
:10052B009292929292FE000000040404040C340494
:10053B000444847F0404040400404042CC0008C8F7
:10054B0008F8090EF8084888000040201F20514881
:10055B00464148504F404041004042CC00807E22F3
:10056B00223E005465C664540040201F22415F495F
:10057B00495F4042425F42420000FE0222DA06100F
:10058B00D2565A535A56D2100000FF0810080710C3
:10059B00171515FD1515171000003E22E2223E001F
:1005AB00FE92929292FE000000203F201F1111003C
:1005BB00FF40230C142241400000FE225A860810F3
:1005CB004424F42C2724E4040000FF040887413F53
:0905DB004080BF8595A59F8000BA
:0B0EB600D2867F01120EC1D2877F019F
:070EC100AE071FEE70FA22DC
:100E7000C286D287E4F532E53290035B93FF120E0F
:0A0E8000C80532E532C3941940EDB5
:010E8A002245
:100EEC00120EB6C2867F01120EC1C2877F78020D28
:010EFC002BCA
:080FB600C286120EB8D2862299
:100EC8008F39120EECE4FF120D2BAF39120D2B02E5
:020ED8000FB653
:100C1900E535C4F8540FC868FFE534C454F048FEFC
:100C290074742FF58274033EF583E5822537F582C6
:090C3900E5833536F583E493FFF1
:100C42008F38120EEC7F40120D2BAF38120D2B0293
:020C52000FB6DB
:100EA1008F38E538C4540F4410FF120EC8E538548A
:050EB1000FFF020EC856
:070FBE00EF24B0FF020EC892
:100D7F00E4F532AF32120FBEE4FF120EA1E4F533E9
:100D8F00E4FF120C420533E533C3948040F2053281
:070D9F00E532C3940840DCBB
:010DA600222A
:100DA700E4F513AF13120FBEE4FF120EA1E4F5141E
:100DB7007FFF120C420514E514C3948040F205131B
:070DC700E513C3940840DCB2
:010DCE002202
:100D2B00AD07E4FCC287ED20E704C2868002D286C1
:100D3B00ED25E0FD120EB80CBC08E9C2877F01124D
:0C0D4B000EC1120EB6C2877F01020EC15D
:060A1F007B0A7A007D2035
:080A25008F328D338A348B35CA
:100A2D00120FBEAF33120EA1E4F536F537120C19C5
:100A3D000537E53770020536C39408E536648094B2
:100A4D008040EAE53204FF120FBEAF33120EA175DE
:100A5D003600753708120C190537E5377002053663
:0B0A6D00C39410E5366480948040EADA
:010A7800225B
:0606B8007D307A00E4FF32
:0806BE008F328D338A348B3535
:1006C600120FBEAF33120EA1E4F536F537E535AE9F
:1006D600347805C333CE33CED8F92424F582740496
:1006E6003EF583E5822537F582E5833536120C3DE6
:1006F6000537E53770020536C39410E536648094F5
:100706008040CAE53204FF120FBEAF33120EA17548
:100716003600753710E535AE347805C333CE33CEA3
:10072600D8F92424F58274043EF583E5822537F54D
:1007360082E5833536120C3D0537E53770020536FE
:0B074600C39420E5366480948040CA14
:010751002285
:100EFD007B061206B87B077A007D40E4FF0206BE32
:100CF900E51124FC601424FE601424FE601424FE13
:100D090060142408701B7B01800E7B02800A7B0320
:100D190080067B0480027B057A007D307F03120AFE
:020D2900252281
:100F0D007B081206B87B097A007D40E4FF0206BE1D
:100F1D007B0A1206B87B0B7A007D40E4FF0206BE09
:100F2D007B0C1206B87B0D7A007D40E4FF0206BEF5
:1007DE00AE0CAF0D7C277D101201F37C007D0A124A
:1007EE0001F3AA04AB057D307F06120A25AE0CAFCD
:1007FE000D7C037DE81201F37C007D0A1201F3AA41
:10080E0004AB057D387F06120A25AE0CAF0D7C00B9
:10081E007D641201F37C007D0A1201F3AA04AB057C
:10082E007D407F06120A25AE0CAF0D7C007D0A12AC
:10083E0001F37C007D0A1201F3AA04AB057D487F0B
:10084E0006120A25AE0CAF0D7C007D0A1201F3AA2A
:0A085E0004AB057D507F06020A2559
:1009C300120E70120D7FE4FBFAFDFF1206BE7B01CF
:1009D3007D101206BA7B0A7A007D20E4FF120A25F5
:1009E3007B027A00E4FD7F031206BE7B037A007D5F
:1009F300107F031206BE7F03120A1F7B047A00E4F2
:100A0300FD7F061206BE7B057A007D107F06120667
:0C0A1300BE7F06120A1F120EFD020CF935
:060E9A00020C0000C10182
:100EDA007F01E4F58CF58AD2A1AE071FEE70FAC243
:010EEA00A166
:010EEB0022E4
:1009570020A013E50A645E60F7E50A644260F1E5EA
:100967000A642260EB22D28C30A00FE50A645E6035
:10097700F7E50A644260F1C28C22AF8CEFFEAD8AC4
:100987007C00E42DF50FEC3EF50EC28CFCAD0FE4B8
:100997001201397B487AE1798A783F12002E1201D9
:1009A70072AD07AC06E41201397B7B7A14792E7895
:0C09B7003E12002E1201728E0C8F0D22D9
:090FAD00120EDA1209570207DEE8
:10002E00EC4D6011E8497017ED33EC3304600DE4CC
:10003E00FCFFFEFD22E933E8330470F80201DE1204
:10004E0001A958046009E4CC248150062850090205
:10005E0001E82840030201E5C0E0EB4A7044B98094
:10006E0006D0E0FB0201D4EF4E701CBD8008EBFF02
:10007E00EAFEE9FD80EBE98DF0A4FEE5F002011742
:10008E00E9CDF9EAFEEBFFEF89F0A4FCE5F0CE89AD
:10009E00F0A42EFFE435F0CD89F0A42DFEE435F06A
:1000AE008067EF4E7005BD80D780C3EF8BF0A4AC98
:1000BE00F0EE8BF0A42CFCE435F0F8EF8AF0A42CD3
:1000CE00E5F038FCE433CB8DF0A42CFCE5F03BF8E6
:1000DE00EE8AF0A42CFCE5F038F8E433CF89F0A4D6
:1000EE002CFCE5F038CF3400CE89F0A42FFFE5F0DC
:1000FE003EFEE433C98DF0A42EFEE5F039CD8AF034
:10010E00A42FFFE5F03EFEE43DFD33D0E0FB5007AB
:10011E000BBB000F0201E8EC2CFCEF33FFEE33FEBD
:06012E00ED33FD0201C0EB
:1001340075F020800E75F010800575F0087D007E46
:10014400007F003392D530D503120248EC334010BF
:10015400EF33FFEE33FEED33FDEC33FCD5F0ED224F
:0E016400E5F0247EA2D513CC92E7CDCEFF228B
:10017200EDD2E7CD33EC3392D524814006E4FFFE85
:10018200FDFC22FCE4CFCECDCC24E0501174FF80E4
:10019200EDC3CC13CCCD13CDCE13CECF13CF047081
:0701A200F030D5DE02024837
:1001A900E9D2E7C933E833F892D5EDD2E7CD33EC9C
:0701B90033FC5002B2D52215
:1001C000EC30E7100FBF000C0EBE00080DBD0004A0
:1001D0000BEB6014A2D5EB13FCED92E7FD2274FF4C
:1001E000FCFDFEFF22E480F8A2D574FF13FC7D80A5
:0301F000E480EFB9
:03000000020752A2
:0C075200787FE4F6D8FD75813902079924
:1001F300BC000BBE0029EF8DF084FFADF022E4CCF0
:10020300F875F008EF2FFFEE33FEEC33FCEE9DECB8
:10021300984005FCEE9DFE0FD5F0E9E4CEFD22EDFE
:10022300F8F5F0EE8420D21CFEADF075F008EF2F48
:10023300FFED33FD4007985006D5F0F222C398FD39
:050243000FD5F0EA22D6
:100B9400C2D5E830E70FB2D5E4C39BFBE49AFAE48C
:100BA40099F9E498F8EC30E717B2D5120BCA12029F
:100BB400C9E4C39BFBE49AFAE499F9E498F8800346
:100BC4001202C930D50DE4C39FFFE49EFEE49DFDEF
:040BD400E49CFC227F
:0E024800C3E49FFFE49EFEE49DFDE49CFC22C7
:10025600EB9FF5F0EA9E42F0E99D42F0E89C45F0FE
:010266002275
:10026700D083D082F8E4937012740193700DA3A326
:1002770093F8740193F5828883E47374029368603A
:06028700EFA3A3A380DF3A
:10075E00020E54E493A3F8E493A34003F68001F24F
:10076E0008DFF48029E493A3F85407240CC8C3339C
:10077E00C4540F4420C8834004F456800146F6DF6B
:10078E00E4800B0102040810204080900E8BE47E62
:10079E00019360BCA3FF543F30E509541FFEE49360
:1007AE00A360010ECF54C025E060A840B8E493A327
:1007BE00FAE493A3F8E493A3C8C582C8CAC583CA52
:1007CE00F0A3C8C582C8CAC583CADFE9DEE780BE0A
:010EA0000051
:10028D0075F008758200EF2FFFEE33FECD33CDCC28
:10029D0033CCC58233C5829BED9AEC99E5829840AB
:1002AD000CF582EE9BFEED9AFDEC99FC0FD5F0D688
:1002BD00E4CEFBE4CDFAE4CCF9A88222B800C1B9B2
:1002CD000059BA002DEC8BF084CFCECDFCE5F0CBF0
:1002DD00F97818EF2FFFEE33FEED33FDEC33FCEB29
:1002ED0033FB10D703994004EB99FB0FD8E5E4F9E4
:1002FD00FA227818EF2FFFEE33FEED33FDEC33FCD1
:10030D00C933C910D7059BE99A4007EC9BFCE99AC4
:10031D00F90FD8E0E4C9FAE4CCFB2275F010EF2F09
:10032D00FFEE33FEED33FDCC33CCC833C810D70709
:10033D009BEC9AE899400AED9BFDEC9AFCE899F844
:0E034D000FD5F0DAE4CDFBE4CCFAE4C8F922D7
:00000001FF
