:030000000200F407
:0C00F400787FE4F6D8FD7581080200E674
:1000BB00434C522831293B0D0A00E68DA2E8A18C56
:0800CB0000E59B9EE8BDA600C4
:0E00E6001200887BFF7A0079BB1200D380FEE7
:1000880053877F75985075C83475CBFF75CADC7572
:0A009800CDFF75CCDCD2AFD2AC2254
:03002300020026B2
:10002600C0E0C0F0C083C082C0D075D000C000C0A0
:0D00360001C002C003C004C005C006C00721
:10004300309827C298859908E508B40A087BFF7A97
:100053000079C5800BE508B40D0B7BFF7A0079CCE2
:0A0063001200D38005AF081201005F
:10006D00D007D006D005D004D003D002D001D000E7
:0B007D00D0D0D082D083D0F0D0E03291
:080100008F993099FDC299228C
:1000D3001200A2FF600C120100740129F9E43AFA3C
:0300E30080EE228A
:10000300EF1FAA0670011E4A6013E4FCFDC3ED94C2
:0D0013007DEC940050EA0DBD00010C80F062
:0100200022BD
:1000A200BB010689828A83E0225002E722BBFE025C
:0900B200E32289828A83E493228F
:00000001FF
